:1000000083C111C09AC199C1C9C197C196C195C197
:1000100094C193C192C191C190C18FC18EC18DC154
:100020008CC18BC18AC1CF93CFB7CF93C395819B2E
:10003000E9F7819B09C0819B07C0819B05C0819B1B
:1000400003C0819B01C0A3C0DF93C0918400DD2762
:10005000C557DF4F819B02C0DF91EBCF2F930F93EA
:100060001F9300B32FEF01FB20F94F933F9310B381
:100070004FEF012701FB21F93BE031C04E7F012FFB
:1000800010B3216028C0102F4D7F2260000000B304
:1000900029C04B7F2460012F000010B32BC010B388
:1000A000477F28602AC04F7E00B320612CC04F7D5F
:1000B00010B320622FC04F7B00B3206432C04227B0
:1000C00000B349934FEF0000102711FB20F910B344
:1000D0001670C9F1297F91F2012701FB21F900B3C4
:1000E000237F89F2315058F1102711FB22F910B308
:1000F000277E79F2012701FB23F92F7C81F200B3DF
:10010000102711FB24F92F7971F200C010B30127D9
:1001100001FB25F92F7359F200C000B3102711FB22
:1001200026F9223040F200C010B3012701FB27F965
:10013000243028F64F77206810B30000F9CF10E480
:100140001ABF002719C03B503195C31BD04010E4A3
:100150001ABF0881033CF9F00B34E9F020918200CA
:100160001981110F1213EDCF4A81441F093641F155
:100170000D3211F0013E29F7009389003F914F9114
:100180001F910F912F91DF91CAB7C6FD4FCFCF912D
:10019000CFBFCF91189520918900222379F3109138
:1001A0008700112369F534306AF13093870020937A
:1001B0008300109184003BE0311B3093840022C007
:1001C000009187000130E4F40AE54F7049F4309162
:1001D000610034FD19C000936100CBE6D0E018C087
:1001E0003091760034FD10C000937600C7E7D0E070
:1001F0000FC02795A8F45150A9F4220F0000F9CFA1
:100200004AE503C042ED01C0432FC4E1D0E032E033
:1002100011B31660919A11BB02B320E416E05F930C
:10022000012756E002BB279520F4515021F4220FFC
:10023000F9CF012756E000003B5A02BBD0F22795C8
:1002400028F4515029F4220F0000F9CF012756E07D
:10025000279502BB20F4515021F4220FF9CF01273A
:1002600056E02991332302BB21F6097F10918800C3
:10027000110FC651D04002BB11F01093820010E460
:100280001ABF026011B3197F402F497F5F9100C0F0
:1002900000C002BB11BB42BB71CF040309041003B1
:1002A0004300540048004E002E0064006500100317
:1002B0004C004500440043007500620065001201D7
:1002C000100100000008C016DF0500010102000156
:1002D00009022200010100807D09040000010300E1
:1002E0000000092101010001221600070581030811
:1002F000000A0600FF0901A101150026FF0075088C
:1003000095010900B20201C011241FBECFEDCDBF7F
:1003100010E0A0E6B0E0EAEEF7E002C005900D9232
:10032000A436B107D9F710E0A4E6B0E001C01D92F1
:10033000A13AB107E1F72ED056C262CEA82FB92F4D
:1003400080E090E041E050EA609530E009C02D91F6
:1003500082279795879510F084279527305EC8F3FC
:100360006F5FA8F30895EADF8D939D9308958FEF53
:1003700087BB88BB88E781BB80E482BB89B7806488
:1003800089BF82E08BBD81E78ABD8EB58B608EBD53
:1003900078940895ECDFE3D18DD0FECF1F920F92B9
:1003A0000FB60F9211241F932F933F934F935F9398
:1003B0006F937F938F939F93AF93BF93EF93FF932D
:1003C00080916500815080936500882389F51091A4
:1003D0006A0080916000103239F4813011F410927B
:1003E000600010926A0016C08823A1F0812F90E06F
:1003F000880F991F880F991F80509040CCD160932F
:1004000066007093670080936800909369001F5F97
:1004100010936A008091660090916700A091680037
:10042000B091690080709070A070B87FB093650043
:1004300082B3877882BB92B390648091640028E095
:1004400030E0082E02C0220F331F0A94E2F7922BED
:1004500092BB69E097D1209166003091670040918E
:1004600068005091690004C05695479537952795C7
:100470008A95D2F7822F809588BB30FD969880911F
:1004800064008F5F80936400833010F010926400EA
:10049000FF91EF91BF91AF919F918F917F916F915C
:1004A0005F914F913F912F911F910F900FBE0F9031
:1004B0001F9018951F93CF93DF93809187008350EF
:1004C00087FDA1C090918400209183002D3209F016
:1004D00098C0883009F095C0CCE0D0E0C91BD109A4
:1004E000C557DF4F83EC80936B008AE580936100F2
:1004F00013BA8881807619F0CE01DBD079C09A8159
:10050000109274008981882331F41092750024E7D9
:1005100030E082E069C0853019F49093880061C0B2
:10052000863009F048C08B81813041F48EEB92E037
:10053000909386008093850082E13AC0823041F436
:1005400080ED92E0909386008093850082E230C037
:100550008330C9F4992341F48AE992E090938600AC
:100560008093850084E024C0913019F48EE992E0F4
:1005700004C09230E1F48EEA92E09093860080937A
:10058000850080E115C0813241F482EE92E09093C3
:1005900086008093850089E00BC0823241F482EFAF
:1005A00092E0909386008093850086E101C080E010
:1005B00090E493BB1DC0883069F0893019F49093A2
:1005C0008A000FC08A3049F08B3059F48BE4809355
:1005D000770007C02AE830E002C024E730E081E07D
:1005E00003C024E730E080E030938600209385004C
:1005F0009F81992321F49E81981708F4892F809375
:100600006200109287008091610084FF44C0809155
:1006100062008F3F09F43FC0182F893008F018E0BE
:10062000811B8093620080916B0098E889278093FA
:100630006B00112321F1E0918500F0918600812F5C
:1006400081509E9B0CC090E083599F4FACE6B0E078
:1006500024912D933196A817B907D1F70CC0EF015B
:1006600090E083599F4FACE6B0E029912D93FE01B5
:10067000A817B907D1F7F0938600E09385008CE6C0
:1006800090E0612F70DE1C5F1C3019F08FEF8093BB
:1006900062001093610084E190B3967031F4815050
:1006A000D9F71092880010928200DF91CF911F91AC
:1006B0000895FC0180818076803409F04EC08181EC
:1006C000813091F58481738162812091660030913F
:1006D00067004091680050916900882359F4972F72
:1006E00080E0860F911DAA2797FDA095BA2F207054
:1006F00030700DC0972F80E0860F911DAA2797FDBF
:10070000A095BA2FDC019927882740705070822B62
:10071000932BA42BB52B8093660090936700A09336
:100720006800B093690019C0823091F4848190E030
:10073000880F991F880F991F40916600509167009C
:1007400060916800709169008050904027D005C08A
:10075000833019F482818093600080E0089585B72A
:10076000826085BF8BB780648BBF8BE480937700FA
:100770008AE580937600899A01C000009150E9F7DC
:1007800089980895002480FD060E660F11F0869565
:10079000D1F7802D0895A6E144E00AC0242F16D099
:1007A000252F14D000C011D0272F10C0A82F862FBE
:1007B000E82FE199FECF1FBA05C0EEBBE09AE395A2
:1007C0000DB20D924150C8F70895262FE199FECF42
:1007D0001CBA1FBA8EBB2DBB0FB6F894E29AE19AF1
:0A07E0000FBE01960895F894FFCFB4
:0407EA00025AFF00B0
:00000001FF
