:1000000083C111C09AC199C1C5C197C196C195C19B
:1000100094C193C192C191C190C18FC18EC18DC154
:100020008CC18BC18AC1CF93CFB7CF93C395819B2E
:10003000E9F7819B09C0819B07C0819B05C0819B1B
:1000400003C0819B01C0A3C0DF93C0918400DD2762
:10005000C557DF4F819B02C0DF91EBCF2F930F93EA
:100060001F9300B32FEF01FB20F94F933F9310B381
:100070004FEF012701FB21F93BE031C04E7F012FFB
:1000800010B3216028C0102F4D7F2260000000B304
:1000900029C04B7F2460012F000010B32BC010B388
:1000A000477F28602AC04F7E00B320612CC04F7D5F
:1000B00010B320622FC04F7B00B3206432C04227B0
:1000C00000B349934FEF0000102711FB20F910B344
:1000D0001670C9F1297F91F2012701FB21F900B3C4
:1000E000237F89F2315058F1102711FB22F910B308
:1000F000277E79F2012701FB23F92F7C81F200B3DF
:10010000102711FB24F92F7971F200C010B30127D9
:1001100001FB25F92F7359F200C000B3102711FB22
:1001200026F9223040F200C010B3012701FB27F965
:10013000243028F64F77206810B30000F9CF10E480
:100140001ABF002719C03B503195C31BD04010E4A3
:100150001ABF0881033CF9F00B34E9F020918200CA
:100160001981110F1213EDCF4A81441F093641F155
:100170000D3211F0013E29F7009389003F914F9114
:100180001F910F912F91DF91CAB7C6FD4FCFCF912D
:10019000CFBFCF91189520918900222379F3109138
:1001A0008700112369F534306AF13093870020937A
:1001B0008300109184003BE0311B3093840022C007
:1001C000009187000130E4F40AE54F7049F4309162
:1001D000610034FD19C000936100CBE6D0E018C087
:1001E0003091760034FD10C000937600C7E7D0E070
:1001F0000FC02795A8F45150A9F4220F0000F9CFA1
:100200004AE503C042ED01C0432FC4E1D0E032E033
:1002100011B31660919A11BB02B320E416E05F930C
:10022000012756E002BB279520F4515021F4220FFC
:10023000F9CF012756E000003B5A02BBD0F22795C8
:1002400028F4515029F4220F0000F9CF012756E07D
:10025000279502BB20F4515021F4220FF9CF01273A
:1002600056E02991332302BB21F6097F10918800C3
:10027000110FC651D04002BB11F01093820010E460
:100280001ABF026011B3197F402F497F5F9100C0F0
:1002900000C002BB11BB42BB71CF040309041003B1
:1002A0004300540048004E002E0064006500100317
:1002B0004C004500440043007500620065001201D7
:1002C000100100000008C016DF0500010102000156
:1002D00009022200010100807D09040000010300E1
:1002E0000000092101010001221600070581030811
:1002F000000A0600FF0901A101150026FF0075088C
:1003000095010900B20201C011241FBECFEDCDBF7F
:1003100010E0A0E6B0E0E0EFF7E002C005900D923B
:10032000A436B107D9F710E0A4E6B0E001C01D92F1
:10033000A13AB107E1F7C0D059C262CEA82FB92FB8
:1003400080E090E041E050EA609530E009C02D91F6
:1003500082279795879510F084279527305EC8F3FC
:100360006F5FA8F30895EADF8D939D9308958FEF53
:1003700087BB88BB88E781BB80E482BB89B7806488
:1003800089BF82E08BBD81E78ABD8EB58B608EBD53
:10039000789408951F920F920FB60F9211241F9315
:1003A0002F933F934F935F936F937F938F939F937D
:1003B000AF93BF93EF93FF9380916500815080933B
:1003C00065008823A9F510916A00809160001032C1
:1003D00039F4813011F41092600010926A0016C056
:1003E0008823A1F0812F90E0880F991F880F991F13
:1003F00080509040D3D160936600709367008093E3
:100400006800909369001F5F10936A0080916600F6
:1004100090916700A0916800B09169008070907021
:10042000A070B87F8B2F9927AA27BB2780936500E0
:1004300082B3877882BB22B3E0916400206488E0B5
:1004400090E00E2E02C0880F991F0A94E2F7282B25
:1004500022BB8E2F90E069E070E08ED12091660083
:1004600030916700409168005091690004C0569532
:100470004795379527958A95D2F7822F809588BB27
:1004800030FD96988E2F8F5F80936400833010F03C
:1004900010926400FF91EF91BF91AF919F918F9166
:1004A0007F916F915F914F913F912F911F910F908D
:1004B0000FBE0F901F9018955ADFF5D001D0FECFD8
:1004C0001F93CF93DF9390918700935097FD9FC028
:1004D00020918400809183008D3209F096C098307D
:1004E00009F093C0CCE0D0E0C21BD109C557DF4F63
:1004F00083EC80936B008AE58093610013BA888156
:10050000807621F0CE01E2D0282F76C09A81109219
:1005100074008981882321F41092750022E066C05E
:10052000853019F49093880060C0863009F049C086
:100530008B81813041F48EEB92E090938600809322
:10054000850022E13BC0823041F480ED92E090933F
:1005500086008093850022E231C08330D1F48A8105
:10056000882341F48AE992E0909386008093850085
:1005700024E024C0813019F48EE992E004C0823076
:10058000E1F48EEA92E0909386008093850020E16A
:1005900015C0813241F482EE92E090938600809300
:1005A000850029E00BC0823241F482EF92E0909303
:1005B00086008093850026E101C020E080E483BBB3
:1005C0001BC0883021F421E08AE890E011C0893016
:1005D00019F490938A0009C08A3011F421E006C012
:1005E0008B3019F48BE48093770020E084E790E06F
:1005F00090938600809385008F81882321F48E81DB
:10060000821708F4282F20936200109287008091AF
:10061000610084FF3AC0809162008F3FB1F1182FD2
:10062000893008F018E0811B8093620080916B0094
:1006300098E8892780936B001123D1F0E091850021
:10064000F09186009E9B09C0912FACE6B0E08491AA
:100650008D9331969150D9F707C0912FACE6B0E059
:1006600081918D939150E1F7F0938600E09385009E
:100670008CE690E0612F77DE612F6C5F6C3019F0B3
:100680008FEF809362006093610094E180B3867085
:1006900031F49150D9F71092880010928200DF91C6
:1006A000CF911F91089585B7826085BF8BB7806415
:1006B0008BBF8BE4809377008AE580937600899ADC
:1006C00001C000008150E9F789980895FC018081FC
:1006D0008076803409F04EC08181813091F584812B
:1006E00063817281209166003091670040916800BB
:1006F00050916900882359F4962F80E0870F911D4F
:10070000AA2797FDA095BA2F207030700DC0962FA4
:1007100080E0870F911DAA2797FDA095BA2FDC01D5
:100720009927882740705070822B932BA42BB52BD0
:100730008093660090936700A0936800B09369006F
:1007400019C0823091F4848190E0880F991F880F3E
:10075000991F409166005091670060916800709108
:100760006900805090401DD005C0833019F482810B
:100770008093600080E008955527002480FF02C028
:10078000060E571F660F771F6115710521F09695AC
:100790008795009799F7952F802D0895A6E144E05D
:1007A0000AC0242F16D0252F14D000C011D0272F17
:1007B00010C0A82F862FE82FE199FECF1FBA05C0E1
:1007C000EEBBE09AE3950DB20D924150C8F7089543
:1007D000262FE199FECF1CBA1FBA8EBB2DBB0FB6D8
:1007E000F894E29AE19A0FBE01960895F894FFCF2B
:0407F000025AFF00AA
:00000001FF
